:100000000C944B010C9473010C9473010C947301C8
:100010000C9473010C9473010C9473010C94730190
:100020000C9473010C9473010C9473010C94730180
:100030000C9473010C94A7090C9473010C94730134
:100040000C9493080C9473010C9416060C94F00510
:100050000C9473010C9473010C9473010C94730150
:100060000C9473010C94730100000000230026001F
:10007000290000000008000201000003040700003E
:10008000000000000000533A2073746F7020746801
:1000900065206D6F746F7200523A2073657473201F
:1000A000746865207461726765742064657374692F
:1000B0006E6174696F6E20666F7220746865206D62
:1000C0006F746F7220746F203930206465677265B9
:1000D00065732C205269676874004C3A207365740C
:1000E0007320746865207461726765742064657339
:1000F00074696E6174696F6E20666F7220746865D2
:10010000206D6F746F7220746F20393020646567C2
:10011000726565732C204C65667400423132333A47
:1001200020736574732074686520746172676574E8
:100130002064657374696E6174696F6E20666F7296
:1001400020746865206D6F746F7220746F20313277
:100150003320636D2C204261636B776172640046CB
:100160003132333A2073657473207468652074618A
:10017000726765742064657374696E6174696F6E0B
:1001800020666F7220746865206D6F746F722074C2
:100190006F2031323320636D2C20466F727761728D
:1001A0006400443A2077696C6C207072696E742028
:1001B000646562756720696E666F726D6174696FE0
:1001C0006E00483A2077696C6C207072696E7420FA
:1001D000746869732068656C70206D6573736167FE
:1001E0006520616761696E0000417661696C6162DA
:1001F0006C652073657269616C20636F6D6D616EF3
:1002000064733A20286C696E657320656E6420778C
:100210006974682043524C46206F72204C46290076
:100220000A504944204443206D6F746F7220636FFD
:100230006E74726F6C6C657220616E64207374658D
:100240007070657220696E746572666163652065A1
:100250006D756C61746F720000000000250028004D
:100260002B0000000000240027002A0004040404DE
:100270000404040402020202020203030303030350
:10028000010204081020408001020408102001022D
:1002900004081020571011241FBECFEFD8E0DEBF96
:1002A000CDBF28E0A8EBB1E001C01D92AA31B20792
:1002B000E1F711E0A0E0B1E0EAE4F9E202C0059064
:1002C0000D92A83BB107D9F711E0CBE4D1E004C00F
:1002D0002197FE010E946B13CA34D107C9F70E940F
:1002E000010C0C94A3140C940000FC01918D828DE0
:1002F000981761F0828DDF01A80FB11D5D968C917A
:10030000928D9F5F9F73928F90E008958FEF9FEF84
:100310000895FC01918D828D981731F0828DE80F40
:10032000F11D858D90E008958FEF9FEF0895FC01FA
:10033000918D228D892F90E0805C9F4F821B9109C7
:100340008F739927089586EE91E00E94970121E02E
:10035000892B09F420E0822F0895FC01848DDF01B0
:10036000A80FB11DA35ABF4F2C91848D90E0019628
:100370008F739927848FA689B7892C93A089B18917
:100380008C9180648C93938D848D981306C0028821
:10039000F389E02D80818F7D80830895EF92FF9215
:1003A0000F931F93CF93DF93EC0181E0888F9B8D98
:1003B0008C8D981305C0E889F989808185FD24C05A
:1003C000F62E0B8D10E00F5F1F4F0F731127E02EDD
:1003D0008C8DE8120CC00FB607FCFACFE889F989BA
:1003E000808185FFF5CFCE010E94AD01F1CF8B8DCD
:1003F000FE01E80FF11DE35AFF4FF0820B8FEA89EF
:10040000FB898081806207C0EE89FF896083E8896B
:10041000F98980818064808381E090E0DF91CF91D1
:100420001F910F91FF90EF900895CF93DF93EC0110
:10043000888D8823C9F0EA89FB89808185FD05C004
:10044000A889B9898C9186FD0FC00FB607FCF5CF3E
:10045000808185FFF2CFA889B9898C9185FFEDCF86
:10046000CE010E94AD01E7CFDF91CF91089580E0EA
:1004700090E0892B29F00E94A30181110C940000C7
:100480000895833081F028F4813099F08230A1F012
:1004900008958730A9F08830B9F08430D1F4809184
:1004A00080008F7D03C0809180008F7780938000D3
:1004B000089584B58F7702C084B58F7D84BD08957B
:1004C0008091B0008F7703C08091B0008F7D8093C2
:1004D000B0000895CF93DF93282F30E0F901EE5854
:1004E000FF4F8491F901E058FD4FD491F901E4598F
:1004F000FD4FC491CC2391F081110E944102EC2F59
:10050000F0E0EE0FFF1FE859FF4FA591B491EC9179
:10051000ED2381E090E021F480E002C080E090E0F3
:10052000DF91CF9108951F93CF93DF93282F30E071
:10053000F901EE58FF4F8491F901E058FD4FD49135
:10054000F901E459FD4FC491CC23C9F0162F811154
:100550000E944102EC2FF0E0EE0FFF1FE85AFD4F22
:10056000A591B4918FB7F894111105C09C91ED2F0E
:10057000E095E92302C0EC91ED2BEC938FBFDF9166
:10058000CF911F9108953FB7F8948091C101909148
:10059000C201A091C301B091C40126B5A89B05C0BA
:1005A0002F3F19F00196A11DB11D3FBFBA2FA92FF2
:1005B000982F8827820F911DA11DB11DBC01CD016F
:1005C00042E0660F771F881F991F4A95D1F708955B
:1005D0008F929F92AF92BF92CF92DF92EF92FF9253
:1005E0006B017C010E94C3024B015C01C114D10468
:1005F000E104F104F1F00E94C302DC01CB0188198F
:100600009909AA09BB09883E9340A105B10570F379
:1006100021E0C21AD108E108F10888EE880E83E0D3
:10062000981EA11CB11CC114D104E104F10419F7F6
:10063000DDCFFF90EF90DF90CF90BF90AF909F9075
:100640008F900895DC011296ED91FC9113975496CA
:100650008C916089718922893389882359F080E6D9
:100660009AEE0E945713CB01B9010E9457132281C1
:1006700033810AC080E69AEE0E945713CB01B9017C
:100680000E94571322853385629FC001639F900D9E
:10069000729F900D11240895CF92DF92EF92FF92F6
:1006A000CF93DF93EC01072E000C880B990B0E946F
:1006B000E41020E030E040E651E40E94431120E0E5
:1006C00030E040ED51E40E94AA120E941C13072E54
:1006D000000C880B990B0E94E4106B017C019B01BC
:1006E000AC016F81788589859A850E94DD10882309
:1006F00051F1EA81FB818C89882339F014821582BB
:10070000168217821382128206C0148615861686F8
:10071000178613861286CF82D886E986FA8620E06D
:1007200030E0A901C701B6010E945213A70196014A
:1007300018160CF05058C701B6010E94AA120E9468
:100740001C13788F6F8BDF91CF91FF90EF90DF902C
:10075000CF900895CF92DF92EF92FF92CF93DF93E5
:10076000EC012B853C854D855E856F81788589857B
:100770009A850E943D126B017C0120E030E0A901C6
:100780000E945213181624F0F7FAF094F7F8F09438
:100790006E8970E080E090E00E94E4109B01AC0163
:1007A000C701B6010E94DD1018161CF081E09B897C
:1007B000911180E0DF91CF91FF90EF90DF90CF908B
:1007C00008952F923F924F925F926F927F928F92F5
:1007D0009F92AF92BF92CF92DF92EF92FF920F93D0
:1007E0001F93CF93DF9300D000D0CDB7DEB71C01AD
:1007F0004A015B0128013901FC0140835183628376
:1008000073830483158326833783C086D186E2866B
:10081000F38664A575A586A597A50E94E21020E041
:1008200030E04AE754E40E94AA1269837A838B83FA
:100830009C83F10184869586A686B7869B01AC01D0
:10084000C301B2010E9443112B013C01F101608BF5
:10085000718B828B938B29813A814B815C81C7019B
:10086000B6010E94AA126B017C01F101648B758BA9
:10087000868B978B808D918D019721F5A501940131
:1008800060E070E0CB010E943D12F1016487758742
:1008900086879787A301920160E070E0CB010E94F8
:1008A0003D12F101608B718B828B938BA7019601B6
:1008B00060E070E0CB010E943D12F101648B758B0A
:1008C000868B978B0F900F900F900F90DF91CF91A9
:1008D0001F910F91FF90EF90DF90CF90BF90AF905E
:1008E0009F908F907F906F905F904F903F902F9050
:1008F00008958F929F92AF92BF92CF92DF92EF9224
:10090000FF92CF93DF93EC01EC8DFD8DC080D18001
:10091000E280F380CCA2DDA2EEA2FFA2EA8DFB8DE5
:1009200080819181A281B38188A799A7AAA7BBA73B
:100930008CA89DA8AEA8BFA8A5019401C701B601C7
:100940000E945213181664F088A899A8AAA8BBA8F8
:10095000A5019401C701B6010E94DD1087FF04C004
:100960008CA29DA2AEA2BFA2DF91CF91FF90EF908B
:10097000DF90CF90BF90AF909F908F9008952F926F
:100980003F924F925F926F927F928F929F92AF921F
:10099000BF92CF92DF92EF92FF920F931F93CF936C
:1009A000DF93EC016A017B0148015901A90198011B
:1009B000C701B6010E94521387FF4EC0C8AAD9AA28
:1009C000EAAAFBAA8CAA9DAAAEAABFAA88AD8823D0
:1009D00009F442C02C8C3D8CF10140805180628032
:1009E0007380A5019401C301B2010E94521318162D
:1009F00034F4F10180829182A282B3820DC0A701FA
:100A00009601C301B2010E94DD1087FF05C0F1010C
:100A1000C082D182E282F3828CA09DA0AEA0BFA052
:100A2000CCA8DDA8EEA8FFA8A7019601C501B401D6
:100A30000E945213181664F0C8A8D9A8EAA8FBA807
:100A4000A7019601C501B4010E94DD1087FF04C013
:100A5000CCA2DDA2EEA2FFA2DF91CF911F910F9158
:100A6000FF90EF90DF90CF90BF90AF909F908F90CE
:100A70007F906F905F904F903F902F900895CF930D
:100A8000DF938091BA019091BB01EC01CC0FDD1F87
:100A9000809100080E946A0221E030E0892B11F069
:100AA00020E030E0C9018C2B9D2B9093BB018093FB
:100AB000BA018115904FE1F48091020890910308EA
:100AC0000196909303088093020880910408909106
:100AD0000508A0910608B09107080196A11DB11D57
:100AE0008093040890930508A0930608B093070824
:100AF0008091B8019091B901EC01CC0FDD1F80917C
:100B000008080E946A0221E030E0892B11F020E001
:100B100030E0C9018C2B9D2B9093B9018093B801D3
:100B20008115904FE1F480910A0890910B0801968D
:100B300090930B0880930A0880910C0890910D08FF
:100B4000A0910E08B0910F080196A11DB11D8093D0
:100B50000C0890930D08A0930E08B0930F08DF9136
:100B6000CF9108951F93CF93DF93EC01E881F98132
:100B700010AE1B861C861D861E861F86188A198A43
:100B80001A8A1B8A1F82188619861A8681E090E0CD
:100B9000988F8F8B1C81812F0E94350A60E0812FF6
:100BA0000E94930260E08D810E94930260E08E813A
:100BB0000E949302EA81FB818C89882339F0148298
:100BC0001582168217821382128206C01486158639
:100BD0001686178613861286DF91CF911F9108958E
:100BE0001F920F920FB60F9211242F933F934F93A2
:100BF0005F936F937F938F939F93AF93BF93EF9385
:100C0000FF9386EE91E00E94AD01FF91EF91BF91BD
:100C1000AF919F918F917F916F915F914F913F9194
:100C20002F910F900FBE0F901F9018951F920F924B
:100C30000FB60F9211242F938F939F93EF93FF93EF
:100C4000E091F601F091F7018081E091FC01F091D3
:100C5000FD0182FD12C090818091FF018F5F8F7333
:100C600020910002821751F0E091FF01F0E0EA517B
:100C7000FE4F958F8093FF0101C08081FF91EF911E
:100C80009F918F912F910F900FBE0F901F901895ED
:100C90002FB7F8946091BD017091BE018091BF01A2
:100CA0009091C0012FBF08952F923F924F925F9273
:100CB0006F927F928F929F92AF92BF92CF92DF926C
:100CC000EF92FF920F931F93CF93DF93CDB7DEB7D1
:100CD0002C970FB6F894DEBF0FBECDBF8C01DC01A0
:100CE0001296ED91FC91139754968C91882329F0DC
:100CF000648175818681978104C064857585868548
:100D000097850E94E2106B017C01F8018789908D24
:100D1000BC01990F880B990B0E94E4109B01AC0158
:100D2000C701B6010E944311D8011B966D937D93B4
:100D30008D939C931E97ED91FC91FC87EB8780AD82
:100D4000882309F4F5C00E9448066B837C838D8359
:100D50009E83EB85FC8580A191A1A2A1B3A14B81CB
:100D60005C816D817E81481B590B6A0B7B0B84A5CE
:100D700095A5A6A5B7A5481759076A077B0708F4E4
:100D8000D7C0028CF38DE02D80809180A280B3804B
:100D9000AB85BC855E96ED91FC915F97A5019401B2
:100DA00060817181828193810E943D122B013C01FF
:100DB000EB85FC8520893189428953890E94431142
:100DC000AB85BC8594962D913D914D915C91979703
:100DD0000E943E126B017C01EB85FC8564A375A328
:100DE00086A397A324A835A8F6A9F983AB85BC856B
:100DF000D796BC91BA8391014F2F5B2F0E9452135B
:100E0000181624F4C101A981BA8118C0AB85BC852C
:100E1000D0968D919D910D90BC91A02D8F83988738
:100E2000A987BA879C01AD01C701B6010E94DD10F8
:100E300087FF0AC08F819885A985BA85EB85FC85D7
:100E400084A395A3A6A3B7A3AB85BC851C962D91BF
:100E50003D914D915C911F97C301B2010E944311D6
:100E6000EB85FC8524A135A146A157A10E943E1225
:100E70006B017C01AB85BC8598962D913D914D9180
:100E80005C919B97C501B4010E943D12EB85FC85E6
:100E900024893589468957890E9443119B01AC01F9
:100EA000C701B6010E943D126B017C01910149818D
:100EB0005A810E9452131816DCF0AB85BC85D0967F
:100EC0002C90D097D1963C90D197D296BC91B98373
:100ED000EB85FC85F3A9FA8391014B2F5F2FB601B7
:100EE000C7010E94DD1087FD03C01601E982FA8266
:100EF000AB85BC855C962D913C915D97C101A98124
:100F0000BA81F90180839183A283B383AB85BC85C9
:100F100098968D929D92AD92BC929B978B819C816D
:100F2000AD81BE81EB85FC8580A391A3A2A3B3A371
:100F3000D8011F96CD90DD90ED90FC90529720E067
:100F400030E0A901C701B6010E94521318161CF423
:100F5000C701B60103C0C701B60190580E941C1317
:100F6000F801638B238534854585568567817085B7
:100F7000818592850E943D126B017C0120E030E06A
:100F8000A9010E945213181624F0F7FAF094F7F80A
:100F9000F094D80156966C9170E080E090E00E9449
:100FA000E4109B01AC01C701B6010E94DD101816C8
:100FB00024F0C8010E94B2050EC0F801E080F18063
:100FC000D701D8968C91811103C0C7010E94790482
:100FD00081E0F70180AFD80157968D919C91589789
:100FE00097FF07C060E015968C910E94930261E024
:100FF00007C061E0D80115968C910E94930260E0D1
:10100000F80186810E949302D8015396DC90539791
:10101000ED2CF12C14961C91812F0E94350AE114BD
:10102000F10409F449C0BFEFEB16F10409F446C01E
:10103000E12FF0E0EE58FF4FE491E330F9F048F48F
:10104000E130B9F0E230A1F584B5806284BDD8BC4E
:1010500051C0E730E9F0E83019F1E43049F580910A
:101060008000806280938000F0928B00E0928A0082
:1010700041C084B5806884BDD7BC3CC080918000ED
:10108000806880938000F0928900E092880032C0EE
:101090008091B00080688093B000D092B3002AC0E5
:1010A0008091B00080628093B000D092B40022C0E2
:1010B000E0E8EE16F10414F460E001C061E0812F75
:1010C0002C960FB6F894DEBF0FBECDBFDF91CF9147
:1010D0001F910F91FF90EF90DF90CF90BF90AF9056
:1010E0009F908F907F906F905F904F903F902F9048
:1010F0000C9493022C960FB6F894DEBF0FBECDBFB2
:10110000DF91CF911F910F91FF90EF90DF90CF90E3
:10111000BF90AF909F908F907F906F905F904F9017
:101120003F902F9008951F920F920FB60F921124A7
:101130002F933F938F939F93AF93BF938091BD0164
:101140009091BE01A091BF01B091C0013091BC014E
:1011500023E0230F2D3720F40196A11DB11D05C0FA
:1011600026E8230F0296A11DB11D2093BC01809398
:10117000BD019093BE01A093BF01B093C0018091C7
:10118000C1019091C201A091C301B091C401019627
:10119000A11DB11D8093C1019093C201A093C30111
:1011A000B093C401BF91AF919F918F913F912F91C7
:1011B0000F900FBE0F901F9018959F92AF92BF9205
:1011C000CF92DF92EF92FF920F931F93CF93DF9313
:1011D000EC01842F9E2C7B836A830C834D832E83AA
:1011E0000E94350A8E810E94350A8C810E94350A40
:1011F000EC8A1B8A8EE18D8B1E8A81E090E0988FAD
:101200008F8B1B861C861D861E861F86188A198A50
:101210001A8A1F82188619861A8689E390E00E942E
:1012200071135C01CE010F96F501958F848F0497A1
:10123000938F828F0497978F868F10AE10AA11AA72
:1012400012AA13AA80E090E0AFE7B3E484AB95ABB9
:10125000A6ABB7AB84E690E0A0E0B0E084A795A78A
:10126000A6A7B7A7118E108EC12CD12C760100E055
:1012700010E020E83FE3B901A801C5010E94E103A5
:101280000E9448066B017C01F50164A575A586A541
:1012900097A5C61AD70AE80AF90AC0A2D1A2E2A203
:1012A000F3A2B982A8820E94E2109B01AC0160E027
:1012B00070E088E492E40E94AA126B017C019B0119
:1012C000AC01F50160897189828993890E9443117B
:1012D000F501608B718B828B938BA70196016489DA
:1012E0007589868997890E94AA12F501648B758B8E
:1012F000868B978B82E390E0A0E0B0E084A795A76F
:10130000A6A7B7A7992049F000E010E025E733E44D
:1013100040E050E065E773EC08C000E010E02FE724
:1013200033E440E050E06FE773ECC5010E94BF0476
:10133000E881F98110AEDF91CF911F910F91FF905D
:10134000EF90DF90CF90BF90AF909F9008951F9245
:101350000F920FB60F9211242F933F934F935F93E9
:101360006F937F938F939F93AF93BF93EF93FF936D
:10137000E091C501F091C6010995FF91EF91BF91F0
:10138000AF919F918F917F916F915F914F913F911D
:101390002F910F900FBE0F901F901895CF92DF9254
:1013A000EF92FF920F931F93CF93DF936C017A011B
:1013B0008B01C0E0D0E0CE15DF0589F0D8016D913A
:1013C0008D01D601ED91FC910190F081E02DC601D7
:1013D0000995892B11F47E0102C02196ECCFC7013B
:1013E000DF91CF911F910F91FF90EF90DF90CF9001
:1013F00008950F931F930E9448066093EE01709327
:10140000EF018093F0019093F101E091E601F091FA
:10141000E7010084F185E02D86EE91E0099597FFC4
:101420001FC00E9448060091EE011091EF0120912B
:10143000F0013091F101DC01CB01801B910BA20B7B
:10144000B30B0091EA011091EB012091EC01309176
:10145000ED0180179107A207B307B8F28FEF9FEF56
:101460001F910F9108950E949E1490E0FC01E05896
:10147000FD4F2491FC01E459FD4F8491882399F09C
:1014800090E0880F991FFC01EE59FD4FA591B49192
:10149000FC01E85AFD4F859194918FB7F894EC9137
:1014A000E22BEC938FBF0895E6EEF1E0A089B189BD
:1014B00082E08C93A485B5851C92A685B78580E1D2
:1014C0008C93108EA489B58986E08C93A289B38908
:1014D0008C9180618C93A289B3898C9188608C9364
:1014E000A289B3898C9180688C930288F389E02D5E
:1014F00080818F7D808308952091CD07E091CC0776
:1015000025E02E9FF0011124E553FD4F9283818346
:10151000E091CC072E9FF0011124E553FD4F748319
:101520006383E091CC072E9FF0011124E553FD4F1A
:1015300010828091CC0790E00196811521E09207FE
:1015400009F480E08093CC078091CD078F5F809372
:10155000CD070895FF920F931F93CF93DF9300D091
:1015600000D0CDB7DEB70E94F909FC0197FD11C08C
:101570008D32910591F0C0970A9778F0E091E601DD
:10158000F091E7010680F781E02D86EE91E0099564
:10159000EACF60E070E0CB014CC020E030E0A90170
:1015A000F12CE130F105F1F0ED32F105C9F0CF0198
:1015B000C0970A97B8F4AAE0B0E00E9423128F0106
:1015C000FF0F220B330BDC01CB01800F911FA21FF9
:1015D000B31F9C01AD01205331094109510902C0DB
:1015E000FF24F394E091E601F091E7010680F78192
:1015F000E02D86EE91E029833A834B835C83099545
:101600000E94F909FC01C09729813A814B815C81D4
:101610000A9738F2E130F10521F2FF2041F0662708
:101620007727CB01621B730B840B950B02C0CA0199
:10163000B9010F900F900F900F90DF91CF911F91F4
:101640000F91FF9008956115710579F0FB010190EC
:101650000020E9F73197AF01461B570BDC01ED91F4
:10166000FC910280F381E02D099480E090E00895E0
:101670000F931F93CF93DF938C01C0E0D0E0F8016C
:10168000EC0FFD1F6491662371F0E091E601F0918B
:10169000E7010190F081E02D86EE91E00995892B1C
:1016A00011F02196ECCF65E271E086EE91E00E94A8
:1016B000230B8C0F9D1FDF91CF911F910F910895E8
:1016C0004F925F926F927F92EF92FF920F931F93D0
:1016D000CF93DF93CDB7DEB7A1970FB6F894DEBFF7
:1016E0000FBECDBF7C01FA01CB0119A2223008F454
:1016F0002AE08E010F5D1F4F422E512C612C712C60
:10170000BF01A30192010E940112F901CA01015017
:1017100011096A3014F4605D01C0695CD8016C93F2
:10172000232B242B252B61F7B801C7010E94230B23
:10173000A1960FB6F894DEBF0FBECDBFDF91CF915B
:101740001F910F91FF90EF907F906F905F904F905F
:101750000895CF92DF92EF92FF92CF93DF936C01C7
:10176000990FEE08FF08F7FE1CC0E091E601F0912A
:10177000E7010190F081E02D6DE286EE91E00995A0
:10178000EC0144275527BA014C195D096E097F0900
:101790002AE086EE91E00E94600B7C01EC0EFD1EBB
:1017A00008C02AE0B701A60186EE91E00E94600B16
:1017B0007C0165E271E086EE91E00E94230B8E0DC4
:1017C0009F1DDF91CF91FF90EF90DF90CF90089514
:1017D000CF93DF93482F50E060E070E02AE086EE80
:1017E00091E00E94600BEC0165E271E086EE91E011
:1017F0000E94230B8C0F9D1FDF91CF9108950C94B5
:10180000230B789484B5826084BD84B5816084BDE7
:1018100085B5826085BD85B5816085BD80916E008E
:10182000816080936E0010928100809181008260BF
:1018300080938100809181008160809381008091FC
:1018400080008160809380008091B10084608093EB
:10185000B1008091B00081608093B00080917A00E7
:10186000846080937A0080917A00826080937A000D
:1018700080917A00816080937A0080917A008068FC
:1018800080937A001092C1001092C7021092C80291
:101890001092C9021092CA0210928502109286021A
:1018A000109287021092880268EB7BE080E090E063
:1018B0000E94E80286EE91E09093C6028093C502F2
:1018C0000E94540A0E944806609385027093860223
:1018D000809387029093880266E171E08091C5024F
:1018E0009091C6020E94FF0B6AE070E080E090E0F9
:1018F0000E94E802C1E0C09399020E94540A80E16C
:101900008093810010928000C093C90180E991E02A
:101910009093C8018093C7019093870080938600BD
:1019200081E1809381008FE395E09093C6018093DD
:10193000C501C0936F00C091E707D091E8076CA57F
:101940007DA58EA59FA50E94E2109B01AC0160E0E1
:1019500070E088E492E40E94AA126B017C019B0172
:10196000AC01688979898A899B890E944311688BB7
:10197000798B8A8B9B8BA70196016C897D898E89D7
:101980009F890E94AA126C8B7D8B8E8B9F8B82E32A
:10199000C82ED12CE12CF12CCCA6DDA6EEA6FFA6FC
:1019A0000091CE071091CF07F80164A575A586A513
:1019B00097A50E94E2109B01AC0160E070E088E412
:1019C00092E40E94AA124B015C019B01AC01F80158
:1019D00060897189828993890E944311F801608B23
:1019E000718B828B938BA50194016489758986899B
:1019F00097890E94AA12F801648B758B868B978B4E
:101A0000C4A6D5A6E6A6F7A6C12CD12C90E8E92E4F
:101A10009FE3F92E00E010E02CE832E440E050E0D3
:101A200060E870E4CE010E94E10300E010E02CE8E1
:101A300032E440E050E060E870E48091CE0790919D
:101A4000CF070E94E10368E770E088E790E00E941A
:101A50007C0A63EF7FEF8DE090E00E947C0A6EE1EC
:101A600070E08EE190E00E947C0A6DE070E083EF10
:101A70009FEF0E947C0A6CEE7FEF8CEE9FEF0E943E
:101A80007C0A24EFC22EDD24D394E12CF12CD1E08A
:101A9000C5E00E944806672B682B692B41F40E9421
:101AA0004806623071058105910508F40AC10E945B
:101AB00048066093E2017093E3018093E401909300
:101AC000E5010091DE011091DF012091E0013091EC
:101AD000E101601771078207930740F46093DE010C
:101AE0007093DF018093E0019093E1010091DE01AA
:101AF0001091DF012091E0013091E1014B015C0187
:101B0000801A910AA20AB30A950184010A3F1105BD
:101B10002105310508F4D5C06093DE017093DF0123
:101B20008093E0019093E101C0929102D0929202E1
:101B3000E0929302F0929402109295021092960213
:101B400010929702109298028091890290918A02D5
:101B5000A0918B02B0918C0280938D0290938E02A3
:101B6000A0938F02B09390020E944806609389026E
:101B700070938A0280938B0290938C020E94480695
:101B80006093850270938602809387029093880207
:101B90000E9448064B015C0168E271E08091C50239
:101BA0009091C6020E94FF0B2AE041E050E060E005
:101BB00070E08091C5029091C6020E94600B6FE2B6
:101BC00071E08091C5029091C6020E94FF0B2AE04D
:101BD000B501A4018091C5029091C6020E94600BDC
:101BE00061E371E08091C5029091C6020E94FF0BF3
:101BF0008091890290918A02A0918B02B0918C020F
:101C0000B501A401481B590B6A0B7B0B2AE080919C
:101C1000C5029091C6020E94600B61E371E0809161
:101C2000C5029091C6020E94FF0B4091890250911B
:101C30008A0260918B0270918C0280918D0290914A
:101C40008E02A0918F02B0919002481B590B6A0B33
:101C50007B0B2AE08091C5029091C6020E94600B26
:101C600063E371E08091C5029091C6020E94FF0B70
:101C70000E944806AB01BC012AE08091C502909108
:101C8000C6020E94600B0091C5021091C60265E376
:101C900071E0C8010E94230B65E271E0C8010E9457
:101CA000230B65E070E080E090E00E94E8020E9473
:101CB00048066093890270938A0280938B02909306
:101CC0008C028091DD01843409F0DAC08091CE016C
:101CD000811112C00E944806DC01CB0188519C4F43
:101CE000AF4FBF4F8093CA019093CB01A093CC011B
:101CF000B093CD01D093CE018090CA019090CB01DA
:101D0000A090CC01B090CD010E944806861697069F
:101D1000A806B90608F0B4C06CE371E086EE91E065
:101D20000E94FF0B6091EE077091EF078091F00722
:101D30009091F1070E941C13CB010E94A90B6EE445
:101D400071E086EE91E00E94FF0B6091D5077091E3
:101D5000D6078091D7079091D8070E941C13CB011A
:101D60000E94A90B61E671E086EE91E00E94FF0BF4
:101D7000E091E907F091EA078091FB07882329F0B9
:101D8000448155816681778104C044855585668587
:101D900077852091FE073091FF07429FC001439F46
:101DA000900D529F900D11240E94A90B63E771E0E2
:101DB00086EE91E00E94FF0BE091D007F091D107F1
:101DC0008091E207882329F04481558166817781DB
:101DD00004C044855585668577852091E507309157
:101DE000E607429FC001439F900D529F900D112422
:101DF0000E94A90B66E871E086EE91E00E94FF0B5D
:101E000087EE97E00E9422030E94A90B63E971E02C
:101E100086EE91E00E94FF0B8EEC97E00E94220379
:101E20000E94A90B61EA71E086EE91E00E94FF0B2F
:101E30008091CD070E94E80B69EA71E086EE91E09F
:101E40000E94FF0B8091CC070E94E80B60EB71E0D1
:101E500086EE91E00E94FF0B8091CB070E94E80B79
:101E60000E944806DC01CB0188519C4FAF4FBF4F09
:101E70008093CA019093CB01A093CC01B093CD0184
:101E800086EE91E00E949701892B31F48091CD0775
:101E9000882309F4BCC070C086EE91E00E947501F1
:101EA0008B350CF080528093DD018834D1F05CF4E6
:101EB000823409F43FC0863409F057C00E94AA0A50
:101EC000DC01CB013DC0823509F440C0833509F403
:101ED00044C08C3409F049C06DE070E083EF9FEF9F
:101EE00039C080E292E00E94380B89EE91E00E94B6
:101EF000380B88EE91E00E94380B82EC91E00E9452
:101F0000380B82EA91E00E94380B8FE591E00E9445
:101F1000380B8BE191E00E94380B8AED90E00E9433
:101F2000380B88E990E00E94380B86E890E00E9428
:101F3000380B1BC00E94AA0A88279927861B970B7B
:101F40009093D7018093D601BC0104C063EF7FEF6B
:101F50008DE090E00E947C0A08C087EE97E00E9426
:101F6000B2058EEC97E00E94B20586EE91E00E94E9
:101F700075010A97D1F78ACF8091CD07882389F020
:101F80009091CB078091CC07981758F4E091CB073C
:101F9000CE9FF0011124E553FD4F8081882309F481
:101FA00057C000E010E060E070E080E08093D8016E
:101FB0007093DA016093D9011093DC010093DB0187
:101FC000882349F087EE97E00E944C03B8018EEC1D
:101FD00097E00E944C0387EE97E00E94AA038823B3
:101FE000B1F08EEC97E00E94AA03882381F068EE9E
:101FF00073E080E090E00E94E8028091CD078823A2
:1020000031F09091CB078091CC079817B0F187EE13
:1020100097E00E94AA03882329F087EE97E00E94A8
:10202000B20504C087EE97E00E9454068EEC97E05C
:102030000E94AA03882329F08EEC97E00E94B20543
:1020400004C08EEC97E00E9454060E94370221CD16
:10205000E091CB07CE9FF0011124E553FD4FD083D3
:10206000E091CB07CE9FF0011124E553FD4F808115
:10207000618172810381148199CFE091CB07CE9F5A
:10208000F0011124E553FD4F10828091CB0790E0C1
:102090000196811521E0920741F08093CB07809152
:1020A000CD0781508093CD07B2CF80E0F6CFEF927D
:1020B0000F93E6EEF1E01382128288EE93E0A0E047
:1020C000B0E084839583A683B7838AE091E091830F
:1020D000808385EC90E09587848784EC90E09787F7
:1020E000868780EC90E0918B808B81EC90E0938BE5
:1020F000828B82EC90E0958B848B86EC90E0978BC2
:10210000868B118E128E138E148EE3E8F2E0168207
:1021100017821086118612861386148615861686F7
:102120001786108A118A128A138A148A158AE0E0A7
:10213000F8E082E090E0918380838DE090E09187E9
:1021400080878EE090E0918B808B84EF91E0938B81
:10215000828B80EA9FE0958B848B13861286138294
:1021600012821486158616861786148215821682A8
:102170001782EE24E39405E023E044E0BF0187EEFC
:1021800097E00E94DD08E12C06E028E047E060E0EF
:1021900078E08EEC97E00E94DD0885E0EBECF2E061
:1021A000DF011D928A95E9F71092CB071092CC07B8
:1021B0001092CD070F91EF9008950E941F1108F41F
:1021C00081E00895E89409C097FB3EF490958095CE
:1021D000709561957F4F8F4F9F4F9923A9F0F92FED
:1021E00096E9BB279395F695879577956795B7956B
:1021F000F111F8CFFAF4BB0F11F460FF1BC06F5F51
:102200007F4F8F4F9F4F16C0882311F096E911C062
:10221000772321F09EE8872F762F05C0662371F083
:1022200096E8862F70E060E02AF09A95660F771F97
:10223000881FDAF7880F9695879597F90895990F73
:102240000008550FAA0BE0E8FEEF16161706E80780
:10225000F907C0F012161306E407F50798F0621BA1
:10226000730B840B950B39F40A2661F0232B242B76
:10227000252B21F408950A2609F4A140A6958FEF95
:10228000811D811D08950E9456110C94C7110E9452
:10229000B91138F00E94C01120F0952311F00C9470
:1022A000B0110C94B61111240C94FB110E94D8119A
:1022B00070F3959FC1F3950F50E0551F629FF00199
:1022C000729FBB27F00DB11D639FAA27F00DB11DB2
:1022D000AA1F649F6627B00DA11D661F829F22273B
:1022E000B00DA11D621F739FB00DA11D621F839FC2
:1022F000A00D611D221F749F3327A00D611D231F98
:10230000849F600D211D822F762F6A2F11249F57E5
:1023100050409AF0F1F088234AF0EE0FFF1FBB1FE8
:10232000661F771F881F91505040A9F79E3F5105A7
:1023300080F00C94B0110C94FB115F3FE4F3983ED5
:10234000D4F3869577956795B795F795E7959F5F51
:10235000C1F7FE2B880F911D9695879597F90895E3
:1023600097F99F6780E870E060E008959FEF80EC48
:10237000089500240A9416161706180609060895EB
:1023800000240A9412161306140605060895092E51
:102390000394000C11F4882352F0BB0F40F4BF2BC0
:1023A00011F460FF04C06F5F7F4F8F4F9F4F089500
:1023B00057FD9058440F551F59F05F3F71F04795F6
:1023C000880F97FB991F61F09F3F79F087950895DB
:1023D000121613061406551FF2CF4695F1DF08C0FA
:1023E000161617061806991FF1CF86957105610517
:1023F00008940895E894BB2766277727CB0197F9BF
:102400000895A1E21A2EAA1BBB1BFD010DC0AA1F35
:10241000BB1FEE1FFF1FA217B307E407F50720F04D
:10242000A21BB30BE40BF50B661F771F881F991FC8
:102430001A9469F760957095809590959B01AC0111
:10244000BD01CF0108950E942E12A59F900DB49F4B
:10245000900DA49F800D911D11240895A29FB0019D
:10246000B39FC001A39F700D811D1124911DB29FC8
:10247000700D811D1124911D08955058BB27AA2766
:102480000E9455120C94C7110E94B91138F00E9495
:10249000C01120F039F49F3F19F426F40C94B611C2
:1024A0000EF4E095E7FB0C94B011E92F0E94D811CF
:1024B00058F3BA17620773078407950720F079F479
:1024C000A6F50C94FA110EF4E0950B2EBA2FA02D60
:1024D0000B01B90190010C01CA01A0011124FF27D1
:1024E000591B99F0593F50F4503E68F11A16F040CC
:1024F000A22F232F342F4427585FF3CF46953795CB
:102500002795A795F0405395C9F77EF41F16BA0B8F
:10251000620B730B840BBAF09150A1F0FF0FBB1F3D
:10252000661F771F881FC2F70EC0BA0F621F731F86
:10253000841F48F4879577956795B795F7959E3FE3
:1025400008F0B0CF9395880F08F09927EE0F979574
:10255000879508950E94BE120C94C7110E94C01165
:1025600058F00E94B91140F029F45F3F29F00C9413
:10257000B01151110C94FB110C94B6110E94D8119A
:1025800068F39923B1F3552391F3951B550BBB27A2
:10259000AA2762177307840738F09F5F5F4F220FE7
:1025A000331F441FAA1FA9F335D00E2E3AF0E0E8DE
:1025B00032D091505040E695001CCAF72BD0FE2F28
:1025C00029D0660F771F881FBB1F261737074807BC
:1025D000AB07B0E809F0BB0B802DBF01FF27935874
:1025E0005F4F3AF09E3F510578F00C94B0110C9477
:1025F000FB115F3FE4F3983ED4F38695779567959A
:10260000B795F7959F5FC9F7880F911D96958795A8
:1026100097F90895E1E0660F771F881FBB1F6217C7
:1026200073078407BA0720F0621B730B840BBA0B85
:10263000EE1F88F7E09508950E9423136894B11166
:102640000C94FB1108950E94E01188F09F5798F0B8
:10265000B92F9927B751B0F0E1F0660F771F881FA7
:10266000991F1AF0BA95C9F714C0B13091F00E94C1
:10267000FA11B1E008950C94FA11672F782F88278A
:10268000B85F39F0B93FCCF3869577956795B395E8
:10269000D9F73EF490958095709561957F4F8F4F57
:1026A0009F4F08950E941F1108F48FEF0895AA1BF1
:1026B000BB1B51E107C0AA1FBB1FA617B70710F02D
:1026C000A61BB70B881F991F5A95A9F7809590955F
:1026D000BC01CD010895EE0FFF1F0590F491E02D90
:1026E0000994CF93DF938230910510F482E090E05B
:1026F000E0911808F091190820E030E0C0E0D0E047
:10270000309711F14081518148175907C0F048179F
:10271000590761F482819381209719F09B838A8302
:102720002BC0909319088093180826C021153105F5
:1027300019F04217530718F49A01BE01DF01EF01A7
:102740000280F381E02DDCCF2115310509F1281B32
:10275000390B2430310590F412968D919C9113978A
:102760006115710521F0FB019383828304C090936E
:10277000190880931808FD01329644C0FD01E20F4C
:10278000F31F81939193225031092D933C933AC0CA
:102790002091160830911708232B41F42091020153
:1027A00030910301309317082093160820910001FF
:1027B000309101012115310541F42DB73EB740910B
:1027C000040150910501241B350BE0911608F0918E
:1027D0001708E217F307A0F42E1B3F0B2817390741
:1027E00078F0AC014E5F5F4F2417350748F04E0F6D
:1027F0005F1F50931708409316088193919302C06E
:10280000E0E0F0E0CF01DF91CF9108950F931F93A7
:10281000CF93DF93009709F48CC0FC0132971382A9
:10282000128200911808109119080115110581F400
:1028300020813181820F931F209116083091170853
:102840002817390779F5F0931708E093160871C037
:10285000D80140E050E0AE17BF0750F412962D911A
:102860003C911397AD012115310509F1D901F3CF41
:102870009D01DA013383228360817181860F971F66
:102880008217930769F4EC0128813981260F371FDD
:102890002E5F3F4F318320838A819B819383828384
:1028A000452B29F4F0931908E093180842C01396B9
:1028B000FC93EE931297ED01499159919E01240FDB
:1028C000351FE217F30771F480819181840F951F02
:1028D000029611969C938E938281938113969C937A
:1028E0008E931297E0E0F0E0D80112968D919C91C2
:1028F0001397009719F0F8018C01F6CF8D919C91F8
:1029000098012E5F3F4F820F931F20911608309140
:1029100017082817390769F4309729F41092190815
:102920001092180802C013821282109317080093A5
:102930001608DF91CF911F910F91089581E090E0EB
:0A294000F8940C94A314F894FFCF50
:10294A0000001A08800000000000CE01CE0997019D
:10295A00750189011502564D4450565F317C315F2D
:10296A00564D4450560D0A00564D4450455F003AA4
:10297A00323A007C005F564D445045004C656674FF
:10298A002044657374696E6F3A20202020005269D2
:10299A006768742044657374696E6F3A202020203A
:1029AA00004C656674204163742E506F732E3A2072
:1029BA002020005269676874204163742E506F7337
:1029CA002E3A202020004C6566742052504D3A2041
:1029DA0020200052696768742052504D3A20202006
:1029EA0000636F756E743A2000686561643A20006E
:0829FA007461696C3A200000D1
:107E0000112484B714BE81FFF0D085E080938100F7
:107E100082E08093C00088E18093C10086E0809377
:107E2000C20080E18093C4008EE0C9D0259A86E02C
:107E300020E33CEF91E0309385002093840096BBD3
:107E4000B09BFECF1D9AA8958150A9F7CC24DD24C4
:107E500088248394B5E0AB2EA1E19A2EF3E0BF2EE7
:107E6000A2D0813461F49FD0082FAFD0023811F036
:107E7000013811F484E001C083E08DD089C08234E0
:107E800011F484E103C0853419F485E0A6D080C0E4
:107E9000853579F488D0E82EFF2485D0082F10E0AE
:107EA000102F00270E291F29000F111F8ED06801E7
:107EB0006FC0863521F484E090D080E0DECF843638
:107EC00009F040C070D06FD0082F6DD080E0C81688
:107ED00080E7D80618F4F601B7BEE895C0E0D1E017
:107EE00062D089930C17E1F7F0E0CF16F0E7DF06D8
:107EF00018F0F601B7BEE89568D007B600FCFDCFD4
:107F0000A601A0E0B1E02C9130E011968C91119780
:107F100090E0982F8827822B932B1296FA010C0160
:107F200087BEE89511244E5F5F4FF1E0A038BF0790
:107F300051F7F601A7BEE89507B600FCFDCF97BE46
:107F4000E89526C08437B1F42ED02DD0F82E2BD052
:107F50003CD0F601EF2C8F010F5F1F4F84911BD097
:107F6000EA94F801C1F70894C11CD11CFA94CF0C13
:107F7000D11C0EC0853739F428D08EE10CD085E9AC
:107F80000AD08FE07ACF813511F488E018D01DD067
:107F900080E101D065CF982F8091C00085FFFCCF94
:107FA0009093C60008958091C00087FFFCCF809118
:107FB000C00084FD01C0A8958091C6000895E0E648
:107FC000F0E098E1908380830895EDDF803219F02E
:107FD00088E0F5DFFFCF84E1DECF1F93182FE3DFCA
:107FE0001150E9F7F2DF1F91089580E0E8DFEE27F6
:047FF000FF270994CA
:027FFE00040479
:0400000300007E007B
:00000001FF